:100000000C942A000C9447000C9447000C94470071
:100010000C9447000C9447000C944F060C94470036
:100020000C9447000C9447000C9447000C94470034
:100030000C9447000C9447000C9447000C94470024
:100040000C9447000C9447000C9447000C94470014
:100050000C94470011241FBECFE5D8E0DEBFCDBF12
:1000600010E0A0E6B0E0E0EDF4E302C005900D92F0
:10007000A03AB107D9F710E0A0EAB0E001C01D92A4
:10008000A53AB107E1F70E94E3160C94661A0C94A6
:100090000000EF92FF920F931F937B018C0120E0F1
:1000A00030E040E05FE40E94F50388238CF0C80153
:1000B000B70120E030E040E05FE40E94C1010E940F
:1000C00055049B01AC01205030404040504806C0D0
:1000D000C801B7010E9455049B01AC01B901CA01D6
:1000E0001F910F91FF90EF900895A0E0B0E0EBE733
:1000F000F0E00C948E17DC012B01FA019C919230F8
:1001000008F439C1EB018881823008F433C194309E
:1001100069F4843009F02FC111969C91119789815F
:10012000981709F428C1AEE7B0E025C1843009F47E
:1001300021C18230A9F4923009F01DC19A01AD01AC
:1001400088E0EA010990AE01E90109929E0181501F
:10015000C1F7E201898111969C918923818308C1AD
:10016000923009F407C112962D903C901397EB0141
:100170008A819B811496AD90BD90CD90DC901797AD
:10018000EC80FD800E811F819101281B390BB90184
:1001900037FF04C066277727621B730B6032710537
:1001A0000CF061C0121613066CF537014801062EDB
:1001B00004C096948794779467940A94D2F721E0C8
:1001C00030E040E050E004C0220F331F441F551FB1
:1001D0006A95D2F721503040404050402E213F21B7
:1001E00040235123211531054105510521F021E01E
:1001F00030E040E050E079018A01E628F72808293C
:1002000019293CC0232BD1F1260E371E350146019A
:10021000062E04C096948794779467940A94D2F734
:1002200021E030E040E050E004C0220F331F441FC3
:10023000551F6A95D2F721503040404050402A2146
:100240003B214C215D21211531054105510521F04E
:1002500021E030E040E050E059016A01A628B728CB
:10026000C828D9280BC0821593052CF01C01AA249C
:10027000BB24650103C0EE24FF24870111969C91E5
:10028000D20111968C91981709F445C0992339F041
:10029000A80197012A193B094C095D0906C0A6016E
:1002A00095012E193F09400B510B57FD08C01182D3
:1002B0003382228224833583468357831DC081E0A5
:1002C00081833382228288279927DC01821B930B4A
:1002D000A40BB50B84839583A683B7830DC0220F2F
:1002E000331F441F551F24833583468357838281E0
:1002F000938101979383828324813581468157813D
:10030000DA01C9010197A109B1098F5F9F4FAF4F72
:10031000BF4328F30BC0918333822282EA0CFB1C7B
:100320000C1D1D1DE482F5820683178383E0808304
:10033000248135814681578157FF1AC0C901AA27F8
:1003400097FDA095BA2F81709070A070B0705695EF
:10035000479537952795822B932BA42BB52B848318
:100360009583A683B7838281938101969383828349
:10037000DF0101C0D201CD01CDB7DEB7E2E10C94BF
:10038000AA17A0E2B0E0E7ECF1E00C949A176983B9
:100390007A838B839C832D833E834F835887E9E048
:1003A000EE2EF12CEC0EFD1ECE010196B7010E943F
:1003B0007E058E010F5E1F4FCE010596B8010E948B
:1003C0007E058A8991E089278A8BC701B801AE0131
:1003D000475E5F4F0E9475000E94A904A096E6E068
:1003E0000C94B617A0E2B0E0E8EFF1E00C949A1795
:1003F00069837A838B839C832D833E834F835887C5
:10040000F9E0EF2EF12CEC0EFD1ECE010196B701A6
:100410000E947E058E010F5E1F4FCE010596B8012A
:100420000E947E05C701B801AE01475E5F4F0E9482
:1004300075000E94A904A096E6E00C94B617A0E20D
:10044000B0E0E5E2F2E00C948E1769837A838B8347
:100450009C832D833E834F835887CE010196BE0136
:10046000675F7F4F0E947E05CE010596BE016F5EDD
:100470007F4F0E947E059985923088F0898982306D
:10048000C8F0943019F4823051F404C0843029F457
:10049000923081F48EE790E0C6C0923049F420E0BB
:1004A0009A858A89981321E02A87CE010996BBC0D4
:1004B000823049F420E09A858A89981321E02A8BBA
:1004C000CE014196B0C02D843E844F8458886D88FB
:1004D0007E888F88988CEE24FF248701AA24BB2471
:1004E000650140E050E060E070E0E0E0F0E0C10174
:1004F00081709070892BE9F0E60CF71C081D191D1E
:100500009A01AB012A0D3B1D4C1D5D1D80E090E062
:10051000A0E0B0E0E614F7040805190520F481E036
:1005200090E0A0E0B0E0BA01A901480F591F6A1F8E
:100530007B1FAA0CBB1CCC1CDD1C97FE08C081E0F5
:1005400090E0A0E0B0E0A82AB92ACA2ADB2A3196B6
:10055000E032F10549F0660C771C881C991C569412
:10056000479437942794C3CFFA85EA892B893C892D
:100570008B859C85280F391F2E5F3F4F17C0CA01FE
:1005800081709070892B61F016950795F794E79428
:1005900080E090E0A0E0B0E8E82AF92A0A2B1B2BC3
:1005A00076956795579547952F5F3F4F77FDE7CF36
:1005B0000CC0440F551F661F771F17FD4160EE0CDE
:1005C000FF1C001F111F21503040403090E05907A0
:1005D00090E0690790E4790760F32B8F3C8FDB0193
:1005E000CA018F779070A070B07080349105A1051A
:1005F000B10561F447FD0AC0E114F10401051105DC
:1006000029F0405C5F4F6F4F7F4F40781A8EFE1786
:1006100011F081E08A8F4D8F5E8F6F8F78A383E01A
:10062000898FCE0149960E94A904A096E2E10C941C
:10063000AA17A8E1B0E0EFE1F3E00C949617698304
:100640007A838B839C832D833E834F835887B9E0C5
:10065000EB2EF12CEC0EFD1ECE010196B7010E948F
:100660007E058E010F5E1F4FCE010596B8010E94D8
:100670007E052985223008F47EC03989323010F495
:10068000B8017CC08A859A8989278A87243011F02D
:10069000223031F4231709F06EC06EE770E06EC0AF
:1006A000343039F41D861E861F86188A1C861B86E8
:1006B00004C0323021F484E08987B7015FC02B8504
:1006C0003C858B899C89281B390B3C872B87ED84C3
:1006D000FE840F851889AD88BE88CF88D88CEA142F
:1006E000FB040C051D0540F4EE0CFF1C001F111F40
:1006F000215030403C872B8720E030E040E050E044
:1007000080E090E0A0E0B0E460E070E0EA14FB0478
:100710000C051D0540F0282B392B4A2B5B2BEA18C2
:10072000FB080C091D09B695A79597958795EE0CC2
:10073000FF1C001F111F6F5F7F4F6F31710531F775
:10074000DA01C9018F779070A070B0708034910584
:10075000A105B10561F427FD0AC0E114F10401050A
:10076000110529F0205C3F4F4F4F5F4F20782D87B8
:100770003E874F87588BBE01675F7F4FCB010E943A
:10078000A9046896EAE00C94B217A8E1B0E0EBEC9B
:10079000F3E00C949A1769837A838B839C832D836F
:1007A0003E834F83588789E0E82EF12CEC0EFD1E26
:1007B000CE010196B7010E947E058E010F5E1F4F8C
:1007C000CE010596B8010E947E058985823040F0F1
:1007D0008989823028F0C701B8010E94F60501C05E
:1007E0008FEF6896E6E00C94B617A8E1B0E0EBEF67
:1007F000F3E00C949A1769837A838B839C832D830F
:100800003E834F83588789E0E82EF12CEC0EFD1EC5
:10081000CE010196B7010E947E058E010F5E1F4F2B
:10082000CE010596B8010E947E058985823040F090
:100830008989823028F0C701B8010E94F60501C0FD
:100840008FEF6896E6E00C94B617A8E1B0E0EBE213
:10085000F4E00C949A1769837A838B839C832D83AD
:100860003E834F83588789E0E82EF12CEC0EFD1E65
:10087000CE010196B7010E947E058E010F5E1F4FCB
:10088000CE010596B8010E947E058985823040F030
:100890008989823028F0C701B8010E94F60501C09D
:1008A00081E06896E6E00C94B617ACE0B0E0EBE5CA
:1008B000F4E00C949E1769837A838B839C83CE012A
:1008C0000196BE016B5F7F4F0E947E058D81823055
:1008D00061F1823050F1843021F48E81882351F10E
:1008E0002EC02F81388537FD20C06E812F31310514
:1008F0001CF06623F9F023C08EE190E0821B930B7D
:1009000029853A854B855C8504C056954795379572
:1009100027958A95D2F76623B1F05095409530958A
:1009200021953F4F4F4F5F4F0EC020E030E040E039
:1009300050E009C02FEF3FEF4FEF5FE704C020E02A
:1009400030E040E050E8B901CA012C96E2E00C9496
:10095000BA17DF92EF92FF920F931F93FC01E4808E
:10096000F58006811781D1808081823048F480E053
:1009700090E0A0E1B0E0E82AF92A0A2B1B2BA5C0E1
:10098000843009F49FC0823021F4EE24FF248701D3
:1009900005C0E114F1040105110519F4E0E0F0E0EF
:1009A00096C0628173819FEF623879070CF05BC05B
:1009B00022E83FEF261B370B2A3131052CF020E0CF
:1009C00030E040E050E02AC0B801A701022E04C088
:1009D00076956795579547950A94D2F781E090E010
:1009E000A0E0B0E004C0880F991FAA1FBB1F2A9582
:1009F000D2F70197A109B1098E219F21A023B1232C
:100A00000097A105B10521F081E090E0A0E0B0E001
:100A10009A01AB01282B392B4A2B5B2BDA01C90138
:100A20008F779070A070B07080349105A105B105EA
:100A300039F427FF09C0205C3F4F4F4F5F4F04C080
:100A4000215C3F4F4F4F5F4FE0E0F0E02030A0E0EF
:100A50003A07A0E04A07A0E45A0710F0E1E0F0E00E
:100A600079018A0127C06038710564F5FB01E158FE
:100A7000FF4FD801C7018F779070A070B07080349D
:100A80009105A105B10539F4E7FE0DC080E490E0C1
:100A9000A0E0B0E004C08FE390E0A0E0B0E0E80E9A
:100AA000F91E0A1F1B1F17FF05C016950795F7941F
:100AB000E794319687E016950795F794E7948A9521
:100AC000D1F705C0EE24FF248701EFEFF0E06E2F91
:100AD000679566276795902F9F77D794DD24D794E5
:100AE0008E2F8695492F462B582F5D29B701CA01B5
:100AF0001F910F91FF90EF90DF900895FC01DB01B3
:100B0000408151812281622F6F7770E0221F22275E
:100B1000221F9381892F880F822B282F30E0991F65
:100B20009927991F11969C93119721153105A9F5C5
:100B3000411551056105710511F482E037C082E865
:100B40009FEF13969C938E9312979A01AB0167E0E7
:100B5000220F331F441F551F6A95D1F783E08C93F2
:100B60000DC0220F331F441F551F12968D919C916B
:100B70001397019713969C938E931297203080E0E1
:100B8000380780E0480780E4580758F314962D93FF
:100B90003D934D935C93179708952F3F310579F45A
:100BA000411551056105710519F484E08C93089590
:100BB00064FF03C081E08C9312C01C9210C02F57B9
:100BC000304013963C932E93129783E08C9387E0EA
:100BD000440F551F661F771F8A95D1F770641496CE
:100BE0004D935D936D937C93179708951F93DC014C
:100BF000FB019C91923008F447C08081823008F458
:100C000043C0943051F411961C91843099F5818140
:100C1000682F70E0611B71093FC0843021F0923071
:100C200031F48230B9F18181882389F12DC0119688
:100C30001C9111978230F1F081811817D9F4129626
:100C40002D913C911397828193818217930794F0A1
:100C500028173907BCF014968D919D910D90BC9189
:100C6000A02D2481358146815781281739074A07ED
:100C70005B0718F4112341F00AC082179307A407F9
:100C8000B50740F4112319F061E070E005C06FEF83
:100C90007FEF02C060E070E0CB011F9108951F92CA
:100CA0000F920FB60F9211242F933F934F935F93A0
:100CB0006F937F938F939F93AF93BF93EF93FF9324
:100CC000DF93CF93CDB7DEB78091A0009091A100C4
:100CD000009729F0E091A000F091A1000995CF9133
:100CE000DF91FF91EF91BF91AF919F918F917F9194
:100CF0006F915F914F913F912F910F900FBE0F9089
:100D00001F901895DF93CF9300D0CDB7DEB79A83AD
:100D1000898383E066E040E00E943007EFE4F0E082
:100D20008CE08083AEE4B0E0EEE4F0E08081982FC8
:100D3000987FE981FA818081892B8C93AEE4B0E0C1
:100D4000EEE4F0E08081282F2F7BE981FA81818118
:100D5000882F90E00024969587950794969587951F
:100D60000794982F802D822B8C93ECE4F0E0118275
:100D70001082E6E4F0E011821082A9E5B0E0E9E536
:100D8000F0E0808180628C930F900F90CF91DF9183
:100D90000895DF93CF9300D0CDB7DEB79A838983D0
:100DA00089819A819093A1008093A0000F900F9069
:100DB000CF91DF910895DF93CF930F92CDB7DEB738
:100DC0008983AEE4B0E0EEE4F0E08081282F2F7B51
:100DD0008981882F90E000249695879507949695B1
:100DE00087950794982F802D822B8C930F90CF910D
:100DF000DF910895DF93CF93CDB7DEB7E6E4F0E05F
:100E000080819181CF91DF910895DF93CF93CDB70A
:100E1000DEB7ECE4F0E011821082CF91DF9108950B
:100E2000DF93CF93CDB7DEB7EFE4F0E01082EEE4CE
:100E3000F0E01082ECE4F0E011821082E6E4F0E0F1
:100E400011821082A9E5B0E0E9E5F0E080818F7DB4
:100E50008C931092A1001092A000CF91DF91089581
:100E6000DF93CF9300D00F92CDB7DEB789836A832B
:100E70004B838A81883008F051C08981843008F022
:100E80004DC08B81813029F58981882F90E0880FB2
:100E9000991FFC01EA57FF4FA081B1818981882FFA
:100EA00090E0880F991FFC01EA57FF4F0190F081F5
:100EB000E02D8081482F8A81282F30E081E090E06A
:100EC000022E02C0880F991F0A94E2F7842B8C939C
:100ED00025C08981882F90E0880F991FFC01EA576F
:100EE000FF4FA081B1818981882F90E0880F991FE1
:100EF000FC01EA57FF4F0190F081E02D8081482FDF
:100F00008A81282F30E081E090E0022E02C0880F15
:100F1000991F0A94E2F7809584238C930F900F9089
:100F20000F90CF91DF910895DF93CF9300D00F9270
:100F3000CDB7DEB789836A834B838A81883008F016
:100F400051C08981843008F04DC08B81813029F5F2
:100F50008981882F90E0880F991FFC01E257FF4F8D
:100F6000A081B1818981882F90E0880F991FFC01B1
:100F7000E257FF4F0190F081E02D8081482F8A8158
:100F8000282F30E081E090E0022E02C0880F991FE8
:100F90000A94E2F7842B8C9325C08981882F90E0F6
:100FA000880F991FFC01E257FF4FA081B181898111
:100FB000882F90E0880F991FFC01E257FF4F0190A6
:100FC000F081E02D8081482F8A81282F30E081E058
:100FD00090E0022E02C0880F991F0A94E2F78095D4
:100FE00084238C930F900F900F90CF91DF910895F1
:100FF000DF93CF9300D00F92CDB7DEB789836A839A
:101000008A81883018F48981843018F04FEF4B833F
:1010100020C08981882F90E0880F991FFC01EA5633
:10102000FF4F0190F081E02D8081282F30E08A81F0
:10103000882F90E0A90102C0559547958A95E2F75F
:10104000CA0181709070882319F051E05B8301C060
:101050001B828B810F900F900F90CF91DF9108959D
:10106000DF93CF9300D0CDB7DEB789836A838981C0
:10107000843068F48981882F90E0880F991FFC01E3
:10108000EA57FF4F0190F081E02D8A8180830F9015
:101090000F90CF91DF910895DF93CF9300D0CDB71C
:1010A000DEB789836A838981843068F48981882FD7
:1010B00090E0880F991FFC01E257FF4F0190F081EB
:1010C000E02D8A8180830F900F90CF91DF9108955A
:1010D000DF93CF9300D0CDB7DEB789838981843089
:1010E00018F08FEF8A830DC08981882F90E0880FD8
:1010F000991FFC01EA56FF4F0190F081E02D80819D
:101100008A838A810F900F90CF91DF910895DF93AA
:10111000CF93CDB7DEB78EE990E00E94820686E9D4
:1011200099E00E94C90683E067E041E00E94300731
:10113000CF91DF910895DF93CF93CDB7DEB7689756
:101140000FB6F894DEBF0FBECDBF83E067E041E08D
:101150000E94940780E090E0A0E2B1E48D8B9E8B2A
:10116000AF8BB88F6D897E898F89988D2BEA3AEA8B
:101170004AEA50E40E941F02DC01CB01898B9A8B62
:10118000AB8BBC8B69897A898B899C8920E030E0A4
:1011900040E85FE30E94250488231CF481E0888BEB
:1011A00091C069897A898B899C8920E030E04FE77A
:1011B00053E40E94C50318160CF07BC06D897E892C
:1011C0008F89988D20E030E04AE754E40E941903AB
:1011D000DC01CB018C879D87AE87BF876C857D85C1
:1011E0008E859F8520E030E04AE755E40E941F028B
:1011F000DC01CB0188879987AA87BB8768857985B9
:101200008A859B8520E030E040E85FE30E9425046A
:1012100088232CF481E090E09F838E833FC0688513
:1012200079858A859B8520E03FEF4FE757E40E9450
:10123000C50318164CF56C857D858E859F8520E04D
:1012400030E040E251E40E941F02DC01CB01BC010E
:10125000CD010E944900DC01CB019F838E830FC02A
:1012600080E991E09D838C838C819D810197F1F7CA
:101270009D838C838E819F8101979F838E838E8136
:101280009F81009769F724C0688579858A859B8549
:101290000E944900DC01CB019F838E838E819F8158
:1012A0009B838A838A819B810197F1F79B838A8341
:1012B0000FC069897A898B899C890E944900DC0169
:1012C000CB01888B8889898389818A95F1F7898305
:1012D00083E067E040E00E94940768960FB6F894B8
:1012E000DEBF0FBECDBFCF91DF910895DF93CF93C7
:1012F00000D00F92CDB7DEB70E949B088EE68B839D
:101300004091A3005091A4008B81282F30E0CA01A6
:10131000B9010E947A17CB019A83898389819A81C6
:101320000F900F900F90CF91DF910895DF93CF939F
:1013300000D0CDB7DEB78091A2008F5F8093A2006E
:101340008091A200282F30E03A83298389819A81F5
:101350008130910531F029813A812230310539F00F
:1013600013C00E94050780E00E94DB060DC00E94AA
:10137000FA069093A4008093A3000E94050781E0E1
:101380000E94DB061092A2000F900F90CF91DF9188
:101390000895DF93CF93CDB7DEB782E060E041E000
:1013A0000E94300782E061E041E00E94300782E065
:1013B00062E041E00E94300782E060E040E00E948D
:1013C000940782E061E040E00E94940782E062E0DE
:1013D00040E00E949407CF91DF910895DF93CF936F
:1013E00000D00F92CDB7DEB789838981282F30E0F6
:1013F0003B832A838A819B818130910579F02A8100
:101400003B812230310581F08A819B81009789F4EC
:1014100082E060E041E00E9494070BC082E061E05E
:1014200041E00E94940705C082E062E041E00E9432
:1014300094070F900F900F90CF91DF910895DF9355
:10144000CF9300D00F92CDB7DEB789838981282F43
:1014500030E03B832A838A819B818130910579F03A
:101460002A813B812230310581F08A819B8100975E
:1014700089F482E060E040E00E9494070BC082E0C3
:1014800061E040E00E94940705C082E062E040E035
:101490000E9494070F900F900F90CF91DF910895C5
:1014A000DF93CF93CDB7DEB76C970FB6F894DEBF5E
:1014B0000FBECDBF80E00E94EE0981E00E94EE09E0
:1014C00082E00E94EE090E94CB1680E090E0AAE73D
:1014D000B3E4898F9A8FAB8FBC8F698D7A8D8B8D9A
:1014E0009C8D20E030E04AE755E40E941F02DC01B9
:1014F000CB018D8B9E8BAF8BB88F6D897E898F8949
:10150000988D20E030E040E85FE30E9425048823C6
:101510002CF481E090E09C8B8B8B3FC06D897E89A1
:101520008F89988D20E03FEF4FE757E40E94C50375
:1015300018164CF5698D7A8D8B8D9C8D20E030E0EE
:1015400040E251E40E941F02DC01CB01BC01CD014D
:101550000E944900DC01CB019C8B8B8B0FC080E982
:1015600091E09A8B898B89899A890197F1F79A8BF7
:10157000898B8B899C8901979C8B8B8B8B899C8910
:10158000009769F714C06D897E898F89988D0E94B4
:101590004900DC01CB019C8B8B8B8B899C89988BC0
:1015A0008F878F8598890197F1F7988B8F8780E0D7
:1015B0000E941F0A81E00E941F0A82E00E941F0A07
:1015C0000E94D71680E090E0AAE7B3E48B879C875F
:1015D000AD87BE876B857C858D859E8520E030E05C
:1015E0004AE755E40E941F02DC01CB018F839887F4
:1015F000A987BA876F81788589859A8520E030E050
:1016000040E85FE30E94250488232CF481E090E009
:101610009E838D833FC06F81788589859A8520E080
:101620003FEF4FE757E40E94C50318164CF56B8552
:101630007C858D859E8520E030E040E251E40E946B
:101640001F02DC01CB01BC01CD010E944900DC017D
:10165000CB019E838D830FC080E991E09C838B83B7
:101660008B819C810197F1F79C838B838D819E8177
:1016700001979E838D838D819E81009769F714C0A9
:101680006F81788589859A850E944900DC01CB01AC
:101690009E838D838D819E819A83898389819A819E
:1016A0000197F1F79A8389836C960FB6F894DEBFA1
:1016B0000FBECDBFCF91DF910895DF93CF9300D0C0
:1016C000CDB7DEB79A83898389819A818630910567
:1016D00018F40E94500A45C089819A81863091058C
:1016E00078F089819A818B30910550F480E00E94D6
:1016F000EE0981E00E94EE0982E00E94EE0931C00D
:1017000089819A818B30910578F089819A81803125
:10171000910550F480E00E94EE0981E00E94EE09FC
:1017200082E00E941F0A1DC089819A818031910543
:1017300078F089819A818531910550F480E00E948A
:10174000EE0981E00E941F0A82E00E941F0A09C080
:1017500080E00E941F0A81E00E941F0A82E00E942E
:101760001F0A0F900F90CF91DF910895DF93CF93D1
:10177000CDB7DEB72E970FB6F894DEBF0FBECDBF44
:1017800080E061E041E00E94300780E062E041E0FB
:101790000E94300780E090E0A0EAB1E48B879C874C
:1017A000AD87BE876B857C858D859E8520E030E08A
:1017B0004AE755E40E941F02DC01CB018F83988722
:1017C000A987BA876F81788589859A8520E030E07E
:1017D00040E85FE30E94250488232CF481E090E038
:1017E0009E838D833FC06F81788589859A8520E0AF
:1017F0003FEF4FE757E40E94C50318164CF56B8581
:101800007C858D859E8520E030E040E251E40E9499
:101810001F02DC01CB01BC01CD010E944900DC01AB
:10182000CB019E838D830FC080E991E09C838B83E5
:101830008B819C810197F1F79C838B838D819E81A5
:1018400001979E838D838D819E81009769F714C0D7
:101850006F81788589859A850E944900DC01CB01DA
:101860009E838D838D819E819A83898389819A81CC
:101870000197F1F79A83898380E063E041E00E9459
:10188000300780E064E041E00E94300780E065E0DE
:1018900041E00E94300780E066E041E00E943007AE
:1018A00083E30E94680C82E30E94680C88E20E9435
:1018B000680C8CE00E94680C81E00E94680C2E96F7
:1018C0000FB6F894DEBF0FBECDBFCF91DF91089564
:1018D0000F931F93DF93CF93CDB7DEB7C356D0409E
:1018E0000FB6F894DEBF0FBECDBFFE01ED59FF4F1E
:1018F000808380E061E040E00E949407FE01E15AAD
:10190000FF4F80E090E0A0E8BFE380839183A28353
:10191000B3838E01055A1F4FFE01E15AFF4F6081CC
:1019200071818281938120E030E04AE755E40E9492
:101930001F02DC01CB01F80180839183A283B38372
:10194000FE01E55AFF4F608171818281938120E021
:1019500030E040E85FE30E942504882344F4FE0160
:10196000E75AFF4F81E090E09183808364C0FE01DD
:10197000E55AFF4F608171818281938120E03FEFC2
:101980004FE757E40E94C50318160CF043C0FE0150
:10199000E15AFF4F608171818281938120E030E0C4
:1019A00040E251E40E941F02DC01CB018E01075A84
:1019B0001F4FBC01CD010E944900DC01CB01F801A1
:1019C000918380831FC0FE01E95AFF4F80E991E0B7
:1019D00091838083FE01E95AFF4F808191810197B5
:1019E000F1F7FE01E95AFF4F91838083DE01A75A88
:1019F000BF4FFE01E75AFF4F8081918101971196F9
:101A00009C938E93FE01E75AFF4F8081918100974E
:101A1000D1F627C08E01075A1F4FFE01E55AFF4F2E
:101A200060817181828193810E944900DC01CB0138
:101A3000F80191838083DE01AB5ABF4FFE01E75A64
:101A4000FF4F808191818D939C93FE01EB5AFF4F54
:101A5000808191810197F1F7FE01EB5AFF4F91834D
:101A6000808380E062E041E00E949407FE01EF5A2B
:101A7000FF4F80E090E0A0E8BFE380839183A283E2
:101A8000B3838E01035B1F4FFE01EF5AFF4F60814E
:101A900071818281938120E030E04AE755E40E9421
:101AA0001F02DC01CB01F80180839183A283B38301
:101AB000FE01E35BFF4F608171818281938120E0B1
:101AC00030E040E85FE30E942504882344F4FE01EF
:101AD000E55BFF4F81E090E09183808364C0FE016D
:101AE000E35BFF4F608171818281938120E03FEF52
:101AF0004FE757E40E94C50318160CF043C0FE01DF
:101B0000EF5AFF4F608171818281938120E030E044
:101B100040E251E40E941F02DC01CB018E01055B13
:101B20001F4FBC01CD010E944900DC01CB01F8012F
:101B3000918380831FC0FE01E75BFF4F80E991E046
:101B400091838083FE01E75BFF4F80819181019744
:101B5000F1F7FE01E75BFF4F91838083DE01A55B18
:101B6000BF4FFE01E55BFF4F808191810197119688
:101B70009C938E93FE01E55BFF4F808191810097DE
:101B8000D1F627C08E01055B1F4FFE01E35BFF4FBF
:101B900060817181828193810E944900DC01CB01C7
:101BA000F80191838083DE01A95BBF4FFE01E55BF5
:101BB000FF4F808191818D939C93FE01E95BFF4FE4
:101BC000808191810197F1F7FE01E95BFF4F9183DD
:101BD0008083FE01ED59FF4F808182958F70982F91
:101BE000917080E063E0492F0E949407FE01ED5957
:101BF000FF4F8081829586958770982F917080E045
:101C000064E0492F0E949407FE01ED59FF4F808147
:101C10008295869586958370982F917080E065E017
:101C2000492F0E949407FE01ED59FF4F8081982FA4
:101C3000991F9927991F80E066E0492F0E94940719
:101C4000FE01ED5BFF4F80E090E0A0E8BFE3808302
:101C50009183A283B3838E01015C1F4FFE01ED5B74
:101C6000FF4F608171818281938120E030E04AE7FB
:101C700055E40E941F02DC01CB01F80180839183AF
:101C8000A283B383FE01FF9660817181828193817B
:101C900020E030E040E85FE30E94250488232CF434
:101CA00081E090E09EAF8DAF46C0FE01FF9660815F
:101CB00071818281938120E03FEF4FE757E40E94DA
:101CC000C503181664F5FE01ED5BFF4F608171815D
:101CD0008281938120E030E040E251E40E941F02C3
:101CE000DC01CB01BC01CD010E944900DC01CB012C
:101CF0009EAF8DAF0FC080E991E09CAF8BAF8BADF5
:101D00009CAD0197F1F79CAF8BAF8DAD9EAD019768
:101D10009EAF8DAF8DAD9EAD009769F716C0FE01E9
:101D2000FF9660817181828193810E944900DC016C
:101D3000CB019EAF8DAF8DAD9EAD9AAF89AF89AD12
:101D40009AAD0197F1F79AAF89AF80E062E040E089
:101D50000E94940780E090E0A0E8BFE38DAB9EABCB
:101D6000AFABB8AF6DA97EA98FA998AD20E030E0E8
:101D70004AE755E40E941F02DC01CB0189AB9AAB14
:101D8000ABABBCAB69A97AA98BA99CA920E030E0D8
:101D900040E85FE30E94250488232CF481E090E072
:101DA00098AB8FA73FC069A97AA98BA99CA920E00D
:101DB0003FEF4FE757E40E94C50318164CF56DA995
:101DC0007EA98FA998AD20E030E040E251E40E9466
:101DD0001F02DC01CB01BC01CD010E944900DC01E6
:101DE000CB0198AB8FA70FC080E991E09EA78DA78C
:101DF0008DA59EA50197F1F79EA78DA78FA598A900
:101E0000019798AB8FA78FA598A9009769F714C081
:101E100069A97AA98BA99CA90E944900DC01CB0180
:101E200098AB8FA78FA598A99CA78BA78BA59CA5DE
:101E30000197F1F79CA78BA780E062E041E00E9448
:101E4000940780E090E0A0E8BFE38FA398A7A9A73C
:101E5000BAA76FA178A589A59AA520E030E04AE746
:101E600055E40E941F02DC01CB018BA39CA3ADA310
:101E7000BEA36BA17CA18DA19EA120E030E040E833
:101E80005FE30E94250488232CF481E090E09AA36C
:101E900089A33FC06BA17CA18DA19EA120E03FEF53
:101EA0004FE757E40E94C50318164CF56FA178A5BB
:101EB00089A59AA520E030E040E251E40E941F028B
:101EC000DC01CB01BC01CD010E944900DC01CB014A
:101ED0009AA389A30FC080E991E098A38F8F8F8D7B
:101EE00098A10197F1F798A38F8F89A19AA10197E3
:101EF0009AA389A389A19AA1009769F714C06BA13D
:101F00007CA18DA19EA10E944900DC01CB019AA376
:101F100089A389A19AA19E8F8D8F8D8D9E8D01970A
:101F2000F1F79E8F8D8FFE01ED59FF4F8081982F25
:101F3000917080E063E0492F0E949407FE01ED5903
:101F4000FF4F80818695982F917080E064E0492F43
:101F50000E949407FE01ED59FF4F8081869586957A
:101F6000982F917080E065E0492F0E949407FE0150
:101F7000ED59FF4F8081869586958695982F9170B3
:101F800080E066E0492F0E94940780E090E0A0E89E
:101F9000BFE3898F9A8FAB8FBC8F698D7A8D8B8DC4
:101FA0009C8D20E030E04AE755E40E941F02DC01EE
:101FB000CB018D8B9E8BAF8BB88F6D897E898F897E
:101FC000988D20E030E040E85FE30E9425048823FC
:101FD0002CF481E090E09C8B8B8B3FC06D897E89D7
:101FE0008F89988D20E03FEF4FE757E40E94C503AB
:101FF00018164CF5698D7A8D8B8D9C8D20E030E024
:1020000040E251E40E941F02DC01CB01BC01CD0182
:102010000E944900DC01CB019C8B8B8B0FC080E9B7
:1020200091E09A8B898B89899A890197F1F79A8B2C
:10203000898B8B899C8901979C8B8B8B8B899C8945
:10204000009769F714C06D897E898F89988D0E94E9
:102050004900DC01CB019C8B8B8B8B899C89988BF5
:102060008F878F8598890197F1F7988B8F8780E00C
:1020700062E040E00E94940780E090E0A0E8BFE3C7
:102080008B879C87AD87BE876B857C858D859E857C
:1020900020E030E04AE755E40E941F02DC01CB015A
:1020A0008F839887A987BA876F81788589859A8574
:1020B00020E030E040E85FE30E94250488232CF410
:1020C00081E090E09E838D833FC06F817885898514
:1020D0009A8520E03FEF4FE757E40E94C5031816AA
:1020E0004CF56B857C858D859E8520E030E040E257
:1020F00051E40E941F02DC01CB01BC01CD010E9412
:102100004900DC01CB019E838D830FC080E991E003
:102110009C838B838B819C810197F1F79C838B83BC
:102120008D819E8101979E838D838D819E810097F5
:1021300069F714C06F81788589859A850E94490066
:10214000DC01CB019E838D838D819E819A8389835F
:1021500089819A810197F1F79A838983CD59DF4F5D
:102160000FB6F894DEBF0FBECDBFCF91DF911F91A8
:102170000F9108950F931F93DF93CF93CDB7DEB7E1
:10218000C356D0400FB6F894DEBF0FBECDBFFE01E0
:10219000ED59FF4F808380E061E041E00E949407A9
:1021A000FE01E15AFF4F80E090E0A0E8BFE38083AA
:1021B0009183A283B3838E01055A1F4FFE01E15A1A
:1021C000FF4F608171818281938120E030E04AE796
:1021D00055E40E941F02DC01CB01F801808391834A
:1021E000A283B383FE01E55AFF4F60817181828132
:1021F000938120E030E040E85FE30E9425048823DB
:1022000044F4FE01E75AFF4F81E090E09183808320
:1022100064C0FE01E55AFF4F608171818281938124
:1022200020E03FEF4FE757E40E94C50318160CF07B
:1022300043C0FE01E15AFF4F608171818281938129
:1022400020E030E040E251E40E941F02DC01CB01BB
:102250008E01075A1F4FBC01CD010E944900DC01CD
:10226000CB01F801918380831FC0FE01E95AFF4F23
:1022700080E991E091838083FE01E95AFF4F8081DC
:1022800091810197F1F7FE01E95AFF4F9183808315
:10229000DE01A75ABF4FFE01E75AFF4F80819181AF
:1022A000019711969C938E93FE01E75AFF4F808110
:1022B00091810097D1F627C08E01075A1F4FFE016A
:1022C000E55AFF4F60817181828193810E944900AC
:1022D000DC01CB01F80191838083DE01AB5ABF4F53
:1022E000FE01E75AFF4F808191818D939C93FE01FF
:1022F000EB5AFF4F808191810197F1F7FE01EB5A74
:10230000FF4F9183808380E062E041E00E94940768
:10231000FE01EF5AFF4F80E090E0A0E8BFE380832A
:102320009183A283B3838E01035B1F4FFE01EF5A9B
:10233000FF4F608171818281938120E030E04AE724
:1023400055E40E941F02DC01CB01F80180839183D8
:10235000A283B383FE01E35BFF4F608171818281C1
:10236000938120E030E040E85FE30E942504882369
:1023700044F4FE01E55BFF4F81E090E091838083B0
:1023800064C0FE01E35BFF4F6081718182819381B4
:1023900020E03FEF4FE757E40E94C50318160CF00A
:1023A00043C0FE01EF5AFF4F6081718182819381AA
:1023B00020E030E040E251E40E941F02DC01CB014A
:1023C0008E01055B1F4FBC01CD010E944900DC015D
:1023D000CB01F801918380831FC0FE01E75BFF4FB3
:1023E00080E991E091838083FE01E75BFF4F80816C
:1023F00091810197F1F7FE01E75BFF4F91838083A5
:10240000DE01A55BBF4FFE01E55BFF4F808191813F
:10241000019711969C938E93FE01E55BFF4F80819F
:1024200091810097D1F627C08E01055B1F4FFE01F9
:10243000E35BFF4F60817181828193810E9449003B
:10244000DC01CB01F80191838083DE01A95BBF4FE2
:10245000FE01E55BFF4F808191818D939C93FE018E
:10246000E95BFF4F808191810197F1F7FE01E95B04
:10247000FF4F91838083FE01ED59FF4F808182954C
:102480008F70982F917080E063E0492F0E9494072D
:10249000FE01ED59FF4F8081829586958770982FB8
:1024A000917080E064E0492F0E949407FE01ED598D
:1024B000FF4F80818295869586958370982F9170C5
:1024C00080E065E0492F0E949407FE01ED59FF4F1F
:1024D0008081982F991F9927991F80E066E0492FE6
:1024E0000E949407FE01ED5BFF4F80E090E0A0E8C2
:1024F000BFE380839183A283B3838E01015C1F4F6E
:10250000FE01ED5BFF4F608171818281938120E04C
:1025100030E04AE755E40E941F02DC01CB01F801DC
:1025200080839183A283B383FE01FF9660817181D2
:102530008281938120E030E040E85FE30E9425043F
:1025400088232CF481E090E09EAF8DAF46C0FE0161
:10255000FF96608171818281938120E03FEF4FE798
:1025600057E40E94C503181664F5FE01ED5BFF4FAA
:10257000608171818281938120E030E040E251E40A
:102580000E941F02DC01CB01BC01CD010E94490069
:10259000DC01CB019EAF8DAF0FC080E991E09CAF15
:1025A0008BAF8BAD9CAD0197F1F79CAF8BAF8DAD31
:1025B0009EAD01979EAF8DAF8DAD9EAD009769F733
:1025C00016C0FE01FF9660817181828193810E9415
:1025D0004900DC01CB019EAF8DAF8DAD9EAD9AAFB2
:1025E00089AF89AD9AAD0197F1F79AAF89AF80E0D5
:1025F00062E040E00E94940780E090E0A0E8BFE342
:102600008DAB9EABAFABB8AF6DA97EA98FA998ADCE
:1026100020E030E04AE755E40E941F02DC01CB01D4
:1026200089AB9AABABABBCAB69A97AA98BA99CA9C6
:1026300020E030E040E85FE30E94250488232CF48A
:1026400081E090E098AB8FA73FC069A97AA98BA9D8
:102650009CA920E03FEF4FE757E40E94C5031816FE
:102660004CF56DA97EA98FA998AD20E030E040E23D
:1026700051E40E941F02DC01CB01BC01CD010E948C
:102680004900DC01CB0198AB8FA70FC080E991E036
:102690009EA78DA78DA59EA50197F1F79EA78DA753
:1026A0008FA598A9019798AB8FA78FA598A9009798
:1026B00069F714C069A97AA98BA99CA90E9449004D
:1026C000DC01CB0198AB8FA78FA598A99CA78BA7FE
:1026D0008BA59CA50197F1F79CA78BA780E062E0F2
:1026E00041E00E94940780E090E0A0E8BFE38FA360
:1026F00098A7A9A7BAA76FA178A589A59AA520E050
:1027000030E04AE755E40E941F02DC01CB018BA3B5
:102710009CA3ADA3BEA36BA17CA18DA19EA120E033
:1027200030E040E85FE30E94250488232CF481E038
:1027300090E09AA389A33FC06BA17CA18DA19EA12B
:1027400020E03FEF4FE757E40E94C50318164CF511
:102750006FA178A589A59AA520E030E040E251E478
:102760000E941F02DC01CB01BC01CD010E94490087
:10277000DC01CB019AA389A30FC080E991E098A363
:102780008F8F8F8D98A10197F1F798A38F8F89A1D3
:102790009AA101979AA389A389A19AA1009769F7A1
:1027A00014C06BA17CA18DA19EA10E944900DC01F7
:1027B000CB019AA389A389A19AA19E8F8D8F8D8D1C
:1027C0009E8D0197F1F79E8F8D8FFE01ED59FF4F82
:1027D0008081982F917080E063E0492F0E949407D8
:1027E000FE01ED59FF4F80818695982F917080E012
:1027F00064E0492F0E949407FE01ED59FF4F80814C
:1028000086958695982F917080E065E0492F0E940B
:102810009407FE01ED59FF4F808186958695869538
:10282000982F917080E066E0492F0E94940780E025
:1028300090E0A0E8BFE3898F9A8FAB8FBC8F698D42
:102840007A8D8B8D9C8D20E030E04AE755E40E9424
:102850001F02DC01CB018D8B9E8BAF8BB88F6D89F6
:102860007E898F89988D20E030E040E85FE30E9408
:10287000250488232CF481E090E09C8B8B8B3FC057
:102880006D897E898F89988D20E03FEF4FE757E46F
:102890000E94C50318164CF5698D7A8D8B8D9C8D21
:1028A00020E030E040E251E40E941F02DC01CB0155
:1028B000BC01CD010E944900DC01CB019C8B8B8BBC
:1028C0000FC080E991E09A8B898B89899A89019759
:1028D000F1F79A8B898B8B899C8901979C8B8B8BC9
:1028E0008B899C89009769F714C06D897E898F89CF
:1028F000988D0E944900DC01CB019C8B8B8B8B89CE
:102900009C89988B8F878F8598890197F1F7988B91
:102910008F8780E062E040E00E94940780E090E0D2
:10292000A0E8BFE38B879C87AD87BE876B857C85DE
:102930008D859E8520E030E04AE755E40E941F0225
:10294000DC01CB018F839887A987BA876F8178854F
:1029500089859A8520E030E040E85FE30E94250405
:1029600088232CF481E090E09E838D833FC06F81AB
:10297000788589859A8520E03FEF4FE757E40E94EC
:10298000C50318164CF56B857C858D859E8520E0EA
:1029900030E040E251E40E941F02DC01CB01BC01A7
:1029A000CD010E944900DC01CB019E838D830FC0C5
:1029B00080E991E09C838B838B819C810197F1F767
:1029C0009C838B838D819E8101979E838D838D81D6
:1029D0009E81009769F714C06F81788589859A85F3
:1029E0000E944900DC01CB019E838D838D819E81F5
:1029F0009A83898389819A810197F1F79A838983E0
:102A0000CD59DF4F0FB6F894DEBF0FBECDBFCF91CB
:102A1000DF911F910F910895DF93CF9300D00F9214
:102A2000CDB7DEB79B838A8319820EC08981282F98
:102A300030E08A819B81FC01E20FF31F80810E94BC
:102A4000BA1089818F5F89838981282F30E08A813C
:102A50009B81FC01E20FF31F8081882339F70F90DF
:102A60000F900F90CF91DF910895DF93CF93CDB763
:102A7000DEB727970FB6F894DEBF0FBECDBF8E83AB
:102A80006F831A8280E48B8380E18C8380E58D8361
:102A90008E81282F30E0CE010296FC01E20FF31F59
:102AA00090818F81890F8983898180680E94680C59
:102AB00027960FB6F894DEBF0FBECDBFCF91DF9142
:102AC0000895DF93CF9300D000D0CDB7DEB78983D0
:102AD0006A835C834B8389816A810E9435158B816F
:102AE0009C810E940C150F900F900F900F90CF912A
:102AF000DF910895DF93CF93CDB7DEB764970FB61C
:102B0000F894DEBF0FBECDBF698B7A8B8B8B9C8B0D
:102B10008DB79EB708970FB6F8949EBF0FBE8DBFB6
:102B2000EDB7FEB73196CE0101969183808380E6A2
:102B300090E09383828389899A89AB89BC89848355
:102B40009583A683B7830E94C5178DB79EB7089655
:102B50000FB6F8949EBF0FBE8DBFCE0101960E94A6
:102B60000C1564960FB6F894DEBF0FBECDBFCF91A3
:102B7000DF910895DF93CF93CDB7DEB72E970FB6D1
:102B8000F894DEBF0FBECDBF81E00E94680C80E0EC
:102B900090E0A0E0B0E48B879C87AD87BE876B8513
:102BA0007C858D859E8520E030E04AE755E40E94D3
:102BB0001F02DC01CB018F839887A987BA876F81B9
:102BC000788589859A8520E030E040E85FE30E94BF
:102BD000250488232CF481E090E09E838D833FC000
:102BE0006F81788589859A8520E03FEF4FE757E42C
:102BF0000E94C50318164CF56B857C858D859E85D6
:102C000020E030E040E251E40E941F02DC01CB01F1
:102C1000BC01CD010E944900DC01CB019E838D8364
:102C20000FC080E991E09C838B838B819C8101970D
:102C3000F1F79C838B838D819E8101979E838D8389
:102C40008D819E81009769F714C06F817885898591
:102C50009A850E944900DC01CB019E838D838D8182
:102C60009E819A83898389819A810197F1F79A835A
:102C7000898380E060E00E9435152E960FB6F894A7
:102C8000DEBF0FBECDBFCF91DF910895DF93CF930D
:102C900000D000D00F92CDB7DEB78B837D836C83DD
:102CA0008B8187708B838B81882F90E0880F991F91
:102CB000880F991F880F991F80640E94680C1A82E0
:102CC00019820FC029813A818C819D81FC01E20F1C
:102CD000F31F80810E94BA1089819A8101969A839C
:102CE000898389819A818830910564F30F900F90D0
:102CF0000F900F900F90CF91DF910895DF93CF93B6
:102D0000CDB7DEB780E060E00E94351584E690E044
:102D10000E940C15CF91DF910895DF93CF930F920E
:102D2000CDB7DEB7898380E069E00E9435158981DF
:102D3000882F90E0A0E0B0E0BC01CD010E947A15A0
:102D40008981843618F480E20E94BA1081E066E03E
:102D50000E9435158981863028F484E790E00E942E
:102D60000C1504C089E790E00E940C150F90CF91DC
:102D7000DF910895DF93CF93CDB7DEB782E065E0B2
:102D800041E00E94300782E065E040E00E94940745
:102D9000CF91DF910895DF93CF93CDB7DEB782E077
:102DA00065E041E00E949407CF91DF910895DF93A1
:102DB000CF93CDB7DEB782E065E040E00E94940794
:102DC000CF91DF910895DF93CF93CDB7DEB76097B2
:102DD0000FB6F894DEBF0FBECDBF8FEF9FEF988B7D
:102DE0008F870E94B60B0E9487080E94BA160E9425
:102DF000C90978940E947E160E947609988B8F8765
:102E00008F850E948D168F8598890E945D0B80E0CA
:102E100090E0A8E4B2E48B879C87AD87BE876B8582
:102E20007C858D859E8520E030E04AE755E40E9450
:102E30001F02DC01CB018F839887A987BA876F8136
:102E4000788589859A8520E030E040E85FE30E943C
:102E5000250488232CF481E090E09E838D833FC07D
:102E60006F81788589859A8520E03FEF4FE757E4A9
:102E70000E94C50318164CF56B857C858D859E8553
:102E800020E030E040E251E40E941F02DC01CB016F
:102E9000BC01CD010E944900DC01CB019E838D83E2
:102EA0000FC080E991E09C838B838B819C8101978B
:102EB000F1F79C838B838D819E8101979E838D8307
:102EC0008D819E81009769F797CF6F81788589857D
:102ED0009A850E944900DC01CB019E838D838D8100
:102EE0009E819A83898389819A810197F1F79A83D8
:102EF000898382CFAA1BBB1B51E107C0AA1FBB1F3E
:102F0000A617B70710F0A61BB70B881F991F5A9575
:102F1000A9F780959095BC01CD0108952F923F921D
:102F20004F925F926F927F928F929F92AF92BF92D9
:102F3000CF92DF92EF92FF920F931F93CF93DF9385
:102F4000CDB7DEB7CA1BDB0B0FB6F894DEBF0FBEE2
:102F5000CDBF09942A88398848885F846E847D842F
:102F60008C849B84AA84B984C884DF80EE80FD8031
:102F70000C811B81AA81B981CE0FD11D0FB6F894A7
:102F8000DEBF0FBECDBFED010895AEE0B0E0EBECCB
:102F9000F7E10C949C170D891E8986E08C831A83B7
:102FA00009838FEF9FE79E838D839E01275E3F4FAE
:102FB000CE0101966F89788DA9010E94E9172F81B2
:102FC0003885020F131FF80110822E96E4E00C944E
:102FD000B817ABE0B0E0EFEEF7E10C948E173C01D0
:102FE0002B015A01FC0117821682838181FD03C0E7
:102FF0006FEF7FEFC6C19AE0892E1E010894211C55
:10300000311CF3012381F20123FD859123FF81917E
:103010002F01882309F4B2C1853239F423FD85914B
:1030200023FF81912F01853229F490E0B3010E94A2
:10303000DC19E7CF982FFF24EE249924FFE1FF1538
:10304000D0F09B3269F09C3228F4903259F09332E0
:1030500091F40EC09D3249F0903369F441E024C0F0
:1030600052E0F52A84E0F82A28C098E0F92A25C021
:10307000E0E1FE2A22C0F7FC29C0892F80538A3064
:1030800070F4F6FE05C0989C902C1124980E15C083
:10309000E89CE02C1124E80EF0E2FF2A0EC09E32DC
:1030A00029F4F6FC6BC140E4F42A07C09C3619F4FD
:1030B00050E8F52A02C0983649F4F20123FD9591B3
:1030C00023FF91912F01992309F0B8CF892F8554BF
:1030D000833018F08052833038F444E050E0A40E7E
:1030E000B51E5FE359830FC0933631F0933779F003
:1030F000933509F056C020C0F5018081898342E0F4
:1031000050E0A40EB51E610101E010E012C0F5010F
:10311000C080D180F6FC03C06FEF7FEF02C0692D45
:1031200070E042E050E0A40EB51EC6010E94D11925
:103130008C015FE7F52214C0F501C080D180F6FC58
:1031400003C06FEF7FEF02C0692D70E042E050E0F6
:10315000A40EB51EC6010E94C6198C0150E8F52ABE
:10316000F3FE07C01AC080E290E0B3010E94DC19B0
:10317000EA948E2D90E008171907A8F30EC0F60107
:10318000F7FC8591F7FE81916F0190E0B3010E94F9
:10319000DC19E110EA94015010400115110579F78E
:1031A000EAC0943611F0993669F5F7FE08C0F501CA
:1031B000208131814281538184E090E00AC0F50191
:1031C000808191819C01442737FD4095542F82E0F6
:1031D00090E0A80EB91E9FE6F92257FF09C050954E
:1031E0004095309521953F4F4F4F5F4FE0E8FE2AC5
:1031F000CA01B901A1012AE030E00E94081AD82EC4
:10320000D21840C0953729F41F2D1F7E2AE030E0E8
:103210001DC01F2D197F9F3661F0903720F498351F
:1032200009F0ACC00FC0903739F0983709F0A6C04C
:1032300004C028E030E00AC0106114FD146020E1F1
:1032400030E004C014FD166020E132E017FF08C032
:10325000F501608171818281938144E050E008C072
:10326000F50180819181BC0180E090E042E050E076
:10327000A40EB51EA1010E94081AD82ED2188FE7FD
:10328000F82EF122F6FE0BC05EEFF522D91438F4C9
:10329000F4FE07C0F2FC05C08FEEF82202C01D2D1F
:1032A00001C0192DF4FE0DC0FE01ED0DF11D808150
:1032B000803319F499EEF92208C01F5FF2FE05C0B1
:1032C00003C08F2D867809F01F5F0F2DF3FC14C00B
:1032D000F0FE0FC01E1510F09D2C0BC09D2C9E0CF7
:1032E000911A1E2D06C080E290E0B3010E94DC1905
:1032F0001F5F1E15C0F304C01E1510F4E11A01C0B3
:10330000EE2404FF0FC080E390E0B3010E94DC19BB
:1033100002FF1DC001FD03C088E790E00EC088E5F4
:1033200090E00BC0802F867891F001FF02C08BE205
:1033300001C080E2F7FC8DE290E0B3010E94DC194D
:1033400006C080E390E0B3010E94DC199A94D9147E
:10335000C0F3DA94F101ED0DF11D808190E0B3012D
:103360000E94DC19DD20A9F706C080E290E0B301DD
:103370000E94DC19EA94EE20C1F743CEF301668186
:103380007781CB012B96E2E10C94AA17FC01059002
:10339000615070400110D8F7809590958E0F9F1F57
:1033A0000895FC016150704001900110D8F780959C
:1033B00090958E0F9F1F08950F931F93CF93DF93C8
:1033C0008C01EB018B8181FF1BC082FF0DC02E8120
:1033D0003F818C819D812817390764F4E881F98148
:1033E0000193F983E88306C0E885F985802F099564
:1033F000892B31F48E819F8101969F838E8302C039
:103400000FEF1FEFC801DF91CF911F910F9108952A
:10341000FA01AA27283051F1203181F1E8946F9305
:103420006E7F6E5F7F4F8F4F9F4FAF4FB1E03ED0AB
:10343000B4E03CD0670F781F891F9A1FA11D680F49
:10344000791F8A1F911DA11D6A0F711D811D911D7C
:10345000A11D20D009F468943F912AE0269F1124F1
:103460003019305D3193DEF6CF010895462F477055
:10347000405D4193B3E00FD0C9F7F6CF462F4F70B0
:10348000405D4A3318F0495D31FD4052419302D00E
:10349000A9F7EACFB4E0A6959795879577956795B4
:1034A000BA95C9F700976105710508959B01AC01B4
:1034B0000A2E06945795479537952795BA95C9F7DB
:1034C000620F731F841F951FA01D0895F894FFCFEE
:1034D000256C750044697374616E63653D2020201E
:1034E00020434D0053544F50002020202000000066
:1034F0000000000000003A003700340031003B00BB
:103500003800350032003900360033003000020147
:00000001FF
